S01D00004F6273746963616C5F61766F6964696E675F6361722E7372656391
S11300000C942A000C94EE0E0C94150F0C944700DB
S11300100C944A110C9423110C9447000C947D10F9
S11300200C9447000C9456100C94C90F0C94A20F16
S11300300C9447000C9447000C9447000C94470020
S11300400C9447000C9447000C9447000C94470010
S11300500C94470011241FBECFE5D8E0DEBFCDBF0E
S113006010E0A0E6B0E0E0EDF7E202C005900D92EA
S1130070A23EB107D9F721E0A2EEB0E001C01D9283
S1130080A436B207E1F70E947C0D0C94E6130C949D
S1130090000080916100813019F41092610008958C
S11300A081E0809361000895882371F0982F20E007
S11300B008C03DEC939F912D1124969596959695A5
S11300C02F5F9111F6CF01C021E0FB01E20FF11D7A
S11300D0108281111CC02150FB01E20FF11D80E34D
S11300E0808308952150FB01E20FF11D9DEC899F4F
S11300F0912D1124969596959695492F440F342F5A
S1130100330F330F340F831B805D8083892F882343
S113011011F02111E7CF08950E945D0D40E061E0E8
S11301208DEF90E00E948E0762E670E08DEF90E024
S11301300E94A8082CC062EE70E083EE90E00E945A
S11301403C048091E200811122C080911F01813022
S113015079F410921F0140E061E08DEF90E00E947D
S11301608E0762E670E08DEF90E00E94A8080FC051
S113017081E080931F0140E061E08DEF90E00E94F8
S11301808E0768E670E08DEF90E00E94A80885E095
S113019090E00E94FA0B813071F28DEF90E00E94A2
S11301A084070E944B0D40E060E08DEF90E00E94D8
S11301B08E076EE670E08DEF90E00E94A80840E0A4
S11301C061E08DEF90E00E948E076EE770E08DEFA6
S11301D090E00E94A80882E090E00E94340C8DEF29
S11301E090E00E9484070895CF92DF92EF92FF92ED
S11301F00F931F93CF93DF93EC018B010E94710D3A
S11302006B017C0120E030E046EC52E40E94741360
S1130210181644F40F2EC12CD12CF6ECEF2EF2E478
S1130220FF2EF02DC882D982EA82FB8220E030E0E2
S11302304CE852E4C701B6010E947413181624F462
S113024081E0F801808341C020E030E040EF51E4D8
S1130250C701B6010E947413181674F420E030E04C
S11302604CE852E4C701B6010E94DE11181624F0CE
S113027082E0F801808329C020E030E040EA51E4C4
S1130280C701B6010E947413882374F020E030E0A3
S113029040EF51E4C701B6010E94DE11181624F0A4
S11302A083E0F801808311C020E030E040EA51E4AB
S11302B0C701B6010E94DE11882324F484E0F8010A
S11302C0808303C086E0F8018083DF91CF911F9182
S11302D00F91FF90EF90DF90CF9008950F931F93AD
S11302E0CF93DF930E94240D0E944B0DEDEFF0E0BD
S11302F01082C2E0C183C383D1E0D483C583C683A3
S1130300C78313E01087C18B04E0028BC38B85E0A5
S1130310848BC58B86E0868BCF010E940A07E3EEAF
S1130320F0E01083D183CF010E943004EBEFF0E0C2
S11303301082C18369E470E0CF010E949A0588EEBF
S113034093E00E94710BE8EEF0E0108211830283C7
S1130350E5EEF0E010821182D283EBEEF0E084E16E
S113036090E0A0E0B0E083839483A583B6838EE11C
S11303708283C1831082AF0165EE70E088EE90E065
S11303800E9496040E94F50BDF91CF911F910F916B
S113039008958BEF90E00E94B10580916100811176
S11303A03CC280911E01811132C28DEF90E00E9407
S11303B0840740E060E08DEF90E00E948E0765E8DE
S11303C070E08DEF90E00E94A8080E948C0081E00C
S11303D080931E011CC280916000853030F46DE171
S11303E071E089E191E00E94F40080911D01813067
S11303F009F0AAC040E060E08DEF90E00E948E0713
S113040063E970E08DEF90E00E94A8086EE970E067
S11304108DEF90E00E94A80838C040E061E08DEFC5
S113042090E00E948E0764EA70E08DEF90E00E94F5
S1130430A8086091190170911A0180911B01909193
S11304401C010E945512862F64E171E00E94540041
S113045064E171E08DEF90E00E94A8086BEA70E01F
S11304608DEF90E00E94A8088EE18093ED004BEEA2
S113047050E065EE70E088EE90E00E94C1046DE10A
S113048071E089E191E00E94F40085E090E00E942F
S1130490FA0B813029F480916100882309F4BDCFDF
S11304A080911D01813009F0B2C140E060E08DEF20
S11304B090E00E948E0760EB70E08DEF90E00E9468
S11304C0A80882E38093ED004BEE50E065EE70E007
S11304D088EE90E00E94C1042DC040E061E08DEF01
S11304E090E00E948E0764EA70E08DEF90E00E9435
S11304F0A8086091190170911A0180911B019091D3
S11305001C010E945512862F64E171E00E94540080
S113051064E171E08DEF90E00E94A8086BEA70E05E
S11305208DEF90E00E94A8086DE171E089E191E00F
S11305300E94F40080911D01813009F068C180910E
S11305406100882351F263C1823009F055C040E054
S113055060E08DEF90E00E948E0763E970E08DEF1C
S113056090E00E94A8086EE970E08DEF90E00E9490
S1130570A8088EE18093ED004BEE50E065EE70E04C
S113058088EE90E00E94C1042DC040E061E08DEF50
S113059090E00E948E0764EA70E08DEF90E00E9484
S11305A0A8086091190170911A0180911B01909122
S11305B01C010E945512862F64E171E00E945400D0
S11305C064E171E08DEF90E00E94A8086BEA70E0AE
S11305D08DEF90E00E94A8086DE171E089E191E05F
S11305E00E94F40080911D01823009F010C18091B5
S11305F06100882351F20BC1833009F08CC040E0C4
S113060060E08DEF90E00E948E0763E970E08DEF6B
S113061090E00E94A8086BEB70E08DEF90E00E94E0
S1130620A8084BEE50E065EE70E088EE90E00E9482
S113063071058EE18093ED0080911F01813049F4B2
S11306404BEE50E065EE70E088EE90E00E944505C8
S113065036C04BEE50E065EE70E088EE90E00E940C
S113066019052DC040E061E08DEF90E00E948E07F7
S113067064EA70E08DEF90E00E94A808609119018F
S113068070911A0180911B0190911C010E945512D6
S1130690862F64E171E00E94540064E171E08DEF03
S11306A090E00E94A8086BEA70E08DEF90E00E9451
S11306B0A8086DE171E089E191E00E94F40082E014
S11306C090E00E94FA0B813021F48091610088232C
S11306D049F24BEE50E065EE70E088EE90E00E9447
S11306E071056DE171E089E191E00E94F40080916F
S11306F01D01833061F4809160008F5F80936000FE
S1130700853008F484C085E080931D0180C081E0B9
S1130710809360007CC0843009F054C040E060E005
S11307208DEF90E00E948E0763E970E08DEF90E01A
S11307300E94A80861EC70E08DEF90E00E94A80888
S11307408EE18093ED004BEE50E065EE70E088EEB4
S113075090E00E94ED042DC040E061E08DEF90E058
S11307600E948E0764EA70E08DEF90E00E94A80872
S11307706091190170911A0180911B0190911C01E3
S11307800E945512862F64E171E00E94540064E1D6
S113079071E08DEF90E00E94A8086BEA70E08DEFA5
S11307A090E00E94A8086DE171E089E191E00E9467
S11307B0F40080911D01843051F5809161008823FB
S11307C059F225C0853019F58DEF90E00E94840719
S11307D040E060E08DEF90E00E948E0767EC70E0EF
S11307E08DEF90E00E94A80883E090E00E94FA0B4D
S11307F0813021F4809161008823B1F381E08093FA
S113080060006DE171E089E191E00E94F400809163
S11308106100882309F4DFCD0895813001F58DEF5F
S113082090E00E94840740E060E08DEF90E00E9439
S11308308E0764ED70E08DEF90E00E94A8084BEE07
S113084050E065EE70E088EE90E00E947105109231
S11308501E010E942D0C809161008130E1F3089506
S1130860009741F0FC0140E0618180810E94810D8C
S113087080E0089581E00895AF92BF92CF92DF9215
S1130880EF92FF920F931F93CF93DF931F92CDB7F5
S1130890DEB70097E1F161157105D9F16B017C01B7
S11308A0AE014F5F5F4FFC01618180810E94360E73
S11308B08981882391F026C0AE014F5F5F4FF70115
S11308C0618180810E94360E8981811103C0FFEF0E
S11308D0AF1ABF0A0F5F1F4F05C0AA24A394B12CFF
S11308E000E010E00436110538F384E1A816B104E1
S11308F020F0F601108280E00DC081E0F6018083D3
S113090080E008C081E0F601808380E003C081E0DC
S113091001C081E00F90DF91CF911F910F91FF9063
S1130920EF90DF90CF90BF90AF900895FF920F9318
S11309301F93CF93DF930097B9F061157105B1F060
S11309408A01EB010E94C708F82ECE010E94C70855
S1130950C82FC8010E9437090E949209F11008C0EB
S1130960C11108C080E007C082E005C082E003C076
S113097081E001C081E0DF91CF911F910F91FF9041
S11309800895FF920F931F93CF93DF930097C1F0C5
S113099061157105B9F08A01EB010E94E308F82E94
S11309A0CE010E94E308C82FC8010E944A0AC80168
S11309B00E949B09F11008C0C11108C080E007C063
S11309C082E005C082E003C081E001C081E0DF91E4
S11309D0CF911F910F91FF900895FF920F931F9352
S11309E0CF93DF930097C1F061157105B9F08A01C7
S11309F0EB010E94FF08F82ECE010E94FF08C82FC9
S1130A00C8010E944A0AC8010E949B09F11008C04B
S1130A10C11108C080E007C082E005C082E003C0C5
S1130A2081E001C081E0DF91CF911F910F91FF9090
S1130A300895FF920F931F93CF93DF930097C1F014
S1130A4061157105B9F08A01EB010E94E308F82EE3
S1130A50CE010E94FF08C82FC8010E944A0AC8019B
S1130A600E949B09F11008C0C11108C080E007C0B2
S1130A7082E005C082E003C081E001C081E0DF9133
S1130A80CF911F910F91FF900895FF920F931F93A1
S1130A90CF93DF930097C1F061157105B9F08A0116
S1130AA0EB010E94FF08F82ECE010E94E308C82F34
S1130AB0C8010E944A0AC8010E949B09F11008C09B
S1130AC0C11108C080E007C082E005C082E003C015
S1130AD081E001C081E0DF91CF911F910F91FF90E0
S1130AE00895FF920F931F93CF93DF930097A9F07C
S1130AF061157105A1F08A01EB010E941B09F82E12
S1130B00CE010E941B09C82FC8010E949A0AF11045
S1130B1008C0C11108C080E007C082E005C082E0BF
S1130B2003C081E001C081E0DF91CF911F910F915B
S1130B30FF900895CF93DF93009769F061157105D5
S1130B4061F0EC0188810E94D80E698188810E943D
S1130B50A10E80E003C082E001C082E0DF91CF916A
S1130B600895009731F0FC0180810E94BC0E80E062
S1130B70089582E00895009731F0FC0180810E947D
S1130B80CA0E80E0089582E00895CF93DF9300D0E9
S1130B9000D0CDB7DEB719821A821B821C820BC02B
S1130BA089819A81AB81BC810196A11DB11D898384
S1130BB09A83AB83BC8389819A81AB81BC81883859
S1130BC09341A105B10560F30F900F900F900F9022
S1130BD0DF91CF910895CF93DF93EC0141E06E89CB
S1130BE08D890E94BB0D0E94C50540E06E898D89E8
S1130BF00E94BB0DDF91CF910895FF920F931F9335
S1130C00CF93DF93EC01062F40E06E898D890E941B
S1130C10BB0D40E06A8989890E94BB0D40E06C8964
S1130C208B890E94BB0D8881882309F441C09BC035
S1130C3081E090E0012E02C0880F991F0A94E2F728
S1130C40202F30E082239323012E02C095958795AF
S1130C500A94E2F70197A9F48F2D0F2C000C990B3D
S1130C60DC011196AA0FBB1FAC0FBD1F880F991F83
S1130C70FE01E80FF91F41E06C9181810E94BB0DD8
S1130C8014C08F2D0F2C000C990BDC011196AA0FA8
S1130C90BB1FAC0FBD1F880F991FFE01E80FF91F82
S1130CA040E06C9181810E94BB0D1150FA9405C003
S1130CB00F2EF3E0FF2EF02D17E0FF200CF0B8CF3D
S1130CC0CE010E94EB050E94C5050F2EF3E0FF2E16
S1130CD0F02D3FC081E090E0012E02C0880F991FE3
S1130CE00A94E2F7202F30E082239323012E02C0DE
S1130CF0959587950A94E2F70197A9F48F2D0F2C07
S1130D00000C990BDC011196AA0FBB1FAC0FBD1F81
S1130D10880F991FFE01E80FF91F41E06C91818152
S1130D200E94BB0D14C08F2D0F2C000C990BDC01FD
S1130D301196AA0FBB1FAC0FBD1F880F991FFE0190
S1130D40E80FF91F40E06C9181810E94BB0D1150A6
S1130D50FA94FF200CF0BECFCE010E94EB050E9456
S1130D60C505C0E04EC08130F1F1C1E04AC081E068
S1130D7090E00F2C02C0880F991F0A94E2F7202FED
S1130D8030E0822393230F2C02C0959587950A9413
S1130D90E2F7019799F4812F90E0DC011196AA0FF4
S1130DA0BB1FAC0FBD1F880F991FFE01E80FF91F71
S1130DB041E06C9181810E94BB0D12C0812F90E0B3
S1130DC0DC011196AA0FBB1FAC0FBD1F880F991F22
S1130DD0FE01E80FF91F40E06C9181810E94BB0D78
S1130DE0FA941F5F05C010E00F2EF7E0FF2EF02DE0
S1130DF0183008F4BCCFCE010E94EB050E94C50553
S1130E00C0E00E94C5058C2FDF91CF911F910F91F7
S1130E10FF9008950F931F93CF93DF93EC0141E06C
S1130E206A8989890E94810D182F41E06C898B8918
S1130E300E94810D182B41E06E898D890E94810DDD
S1130E40182B88818823B1F02DC0202F30E0D901E0
S1130E501196AA0FBB1FAC0FBD1F220F331FFE013B
S1130E60E20FF31F41E06C9181810E94810D182BE8
S1130E700F5F01C000E0043040F362E0CE010E9445
S1130E80FD0568E2CE010E94FD056CE0CE010E94E2
S1130E90FD0566E0CE010E94FD0561E0CE010E94E1
S1130EA0FD052CC08130B9F011E028C0802F90E0FE
S1130EB0DC011196AA0FBB1FAC0FBD1F880F991F31
S1130EC0FE01E80FF91F41E06C9181810E94810DC0
S1130ED0182B0F5F01C000E0083040F368E3CE0137
S1130EE00E94FD056CE0CE010E94FD0566E0CE0186
S1130EF00E94FD0561E0CE010E94FD05812FDF9176
S1130F00CF911F910F910895CF9361E00E94FD0549
S1130F10C82F0E94C5058C2FCF910895611106C07A
S1130F2060E8640F0E94FD0580E00895613031F4AB
S1130F3060EC640F0E94FD0580E0089581E008954F
S1130F40FF920F931F93CF93DF93EC01062F40E0A2
S1130F506E898D890E94BB0D41E06A8989890E944E
S1130F60BB0D40E06C898B890E94BB0D888188236E
S1130F7009F441C09AC081E090E0012E02C0880FBC
S1130F80991F0A94E2F7202F30E082239323012E45
S1130F9002C0959587950A94E2F70197A9F48F2DDD
S1130FA00F2C000C990BDC011196AA0FBB1FAC0F80
S1130FB0BD1F880F991FFE01E80FF91F41E06C91D6
S1130FC081810E94BB0D14C08F2D0F2C000C990B36
S1130FD0DC011196AA0FBB1FAC0FBD1F880F991F10
S1130FE0FE01E80FF91F40E06C9181810E94BB0D66
S1130FF01150FA9405C00F2EF3E0FF2EF02D17E0E8
S1131000FF200CF0B8CFCE010E94EB050E94C5056D
S11310100F2EF3E0FF2EF02D3FC081E090E0012E73
S113102002C0880F991F0A94E2F7202F30E0822330
S11310309323012E02C0959587950A94E2F70197B0
S1131040A9F48F2D0F2C000C990BDC011196AA0F1B
S1131050BB1FAC0FBD1F880F991FFE01E80FF91FBE
S113106041E06C9181810E94BB0D14C08F2D0F2C27
S1131070000C990BDC011196AA0FBB1FAC0FBD1F0E
S1131080880F991FFE01E80FF91F40E06C918181E0
S11310900E94BB0D1150FA94FF200CF0BECFCE017C
S11310A00E94EB050E94C5054DC0813009F04AC07D
S11310B03CC081E090E00F2C02C0880F991F0A9475
S11310C0E2F7202F30E0822393230F2C02C0959562
S11310D087950A94E2F7019799F4812F90E0DC0157
S11310E01196AA0FBB1FAC0FBD1F880F991FFE01DD
S11310F0E80FF91F41E06C9181810E94BB0D12C081
S1131100812F90E0DC011196AA0FBB1FAC0FBD1F0D
S1131110880F991FFE01E80FF91F40E06C9181814F
S11311200E94BB0DFA941F5F05C010E00F2EF7E07C
S1131130FF2EF02D183008F4BCCFCE010E94EB0531
S11311400E94C505DF91CF911F910F91FF900895E3
S1131150EF92FF920F931F93CF936115710581F066
S11311608B017C01C0E004C0C7010E94A007CF5FCF
S1131170F801EC0FF11D60816111F6CF80E001C030
S113118082E0CF911F910F91FF90EF9008951F93EC
S1131190CF93DF93EC01698141E088810E94810D46
S11311A0182F6A8141E088810E94810D111104C0C9
S11311B0882321F081E003C081E001C080E0DF9159
S11311C0CF911F9108951F93CF93DF93EC01698111
S11311D041E088810E94BB0D182F6A8140E088811C
S11311E00E94BB0D111104C0882321F081E003C0CB
S11311F081E001C080E0DF91CF911F9108951F939A
S1131200CF93DF93EC01698140E088810E94BB0D9C
S1131210182F6A8141E088810E94BB0D111104C01E
S1131220882321F081E003C081E001C080E0DF91E8
S1131230CF911F9108951F93CF93DF93EC016981A0
S113124040E088810E94BB0D182F6A8140E08881AC
S11312500E94BB0D111104C0882321F081E003C05A
S113126081E001C080E0DF91CF911F9108958F92BA
S11312709F92AF92BF92CF92DF92EF92FF92CF9361
S1131280DF93009709F442C0EC0141E06981888151
S11312900E94810D6B817C818D819E810E948412CC
S11312A09B01AC0160E070E080E89FE30E94E311E1
S11312B020E030E04AE754E40E9479130E9455127A
S11312C06B017C017A8769876A8170E080E090E035
S11312D00E94841220E030E048EC52E40E94E311C2
S11312E04B015C01B60180E090E00E948412A501EC
S11312F094010E9479130E94551278876F831B868C
S1131300D0932501C093240180E001C081E0DF91E6
S1131310CF91FF90EF90DF90CF90BF90AF909F90D0
S11313208F90089565E27AE088EE93E00E94C70A00
S11313300E946C0B0895CF93DF930097B1F0EC01FA
S113134081E08B8741E0698188810E94BB0D809197
S1131350200190912101A0912201B09123018C8759
S11313609D87AE87BF8780E001C081E0DF91CF9188
S11313700895CF92DF92EF92FF920F931F930097FD
S113138009F457C0009120011091210120912201FC
S113139030912301FC0144855585668577850417C2
S11313A015072607370768F468017901C41AD50AB6
S11313B0E60AF70AB701A60141505109610971090A
S11313C008C068017901C41AD50AE60AF70AB70108
S11313D0A601FC0187819085A0E0B0E04817590779
S11313E06A077B0760F48385813029F181E0838774
S11313F041E0618180810E94BB0D80E01FC0818536
S11314009285A0E0B0E0481759076A077B0758F4B3
S11314108385882391F0138640E0618180810E9456
S1131420BB0D80E00BC0048715872687378780E0D3
S113143005C081E003C080E001C080E01F910F91EE
S1131440FF90EF90DF90CF900895CF93809120018B
S113145090912101A0912201B09123010196A11D37
S1131460B11D8093200190932101A0932201B09398
S11314702301C0E00BC0EC2FF0E0EE0FFF1FEC5D8A
S1131480FE4F808191810E94B909CF5FCC2399F3EB
S1131490CF9108958F929F92AF92BF92CF92DF9295
S11314A0EF92FF92CF93DF930097C1F1EC016B8130
S11314B07C818D819E810E9484129B01AC0160E03D
S11314C070E080E89FE30E94E31120E030E04AE707
S11314D054E40E9479130E9455126B017C017A87AF
S11314E069876A8170E080E090E00E94841220E0C5
S11314F030E048EC52E40E94E3114B015C01B60178
S113150080E090E00E948412A50194010E94791366
S11315100E94551278876F8380E001C081E0DF91DB
S1131520CF91FF90EF90DF90CF90BF90AF909F90BE
S11315308F900895CF93DF93009769F0EC011B8699
S113154040E0698188810E94BB0D1C861D861E8631
S11315501F8680E001C081E0DF91CF910895E09182
S11315605701F0915801099589E591E00E948A0F8D
S11315700895809131019091320101969093320146
S1131580809331018DE491E00E943C1008954F92C4
S11315905F926F927F928F929F92AF92BF92EF92DF
S11315A0FF920F931F93CF93DF93CDB7DEB762976C
S11315B00FB6F894DEBF0FBECDBF8C017B011A823B
S11315C019821B821C821D821E8280E091E0A0E0B1
S11315D0B0E08F839887A987BA871B8681E08C87C0
S11315E01D861E861F86188A198A1A8A6F81788535
S11315F089859A850E94841220E034E244E75BE402
S11316000E94E31120E034E244E759E40E94791394
S11316100E9455126B837C838D839E832B853C852E
S11316204D855E856F85788989899A890E94C11262
S11316304B015C01B80180E090E00E9484122B0110
S11316403C016B817C818D819E810E9484129B016F
S1131650AC01C301B2010E94E3119B01AC01C501BD
S1131660B4010E9471110E9455127A836983083E65
S11316701340E0F089819A81E9E5F1E09383828364
S1131680108284E08183EDE5F1E0808182608083D3
S1131690F0925801E09257018FEA9AE00E94980F65
S11316A089E591E00E943C0F80E001C081E06296F0
S11316B00FB6F894DEBF0FBECDBFDF91CF911F915F
S11316C00F91FF90EF90BF90AF909F908F907F907D
S11316D06F905F904F90089589E591E00E94780F94
S11316E00895CF92DF92EF92FF920F931F93CF93BF
S11316F0DF93CDB7DEB762970FB6F894DEBF0FBEA7
S1131700CDBF8C011A8219821B821C821D821E820B
S113171080E094E0A0E0B0E08F839887A987BA873F
S11317201B861C8681E08D871E861F86188A198A6F
S11317301A8A6F81788589859A850E94841220E0AF
S113174030E04AE756E40E94E3116B837C838D8387
S11317509E832B853C854D855E856F857889898937
S11317609A890E94C1126B017C01B80180E090E06B
S11317700E9484122B813C814D815E810E94E31181
S11317809B01AC01C701B6010E9471110E94551260
S11317907A836983083E1340C0F089819A81EDE41D
S11317A0F1E093838283108285E08183E1E5F1E0B7
S11317B080818260808389EB9AE00E944C108DE4E2
S11317C091E00E94F00F80E001C081E062960FB6C4
S11317D0F894DEBF0FBECDBFDF91CF911F910F9163
S11317E0FF90EF90DF90CF9008958DE491E00E94F8
S11317F02810089520913001211110C02091310149
S11318003091320130932F0120932E012091310128
S11318103091320141E04093300104C02091310104
S11318203091320140912E0150912F012417350738
S113183028F4241B350B2150310902C0241B350B1D
S11318402817390740F01092300110922F0110929E
S11318502E0180E0089581E00895109230011092E5
S11318602F0110922E010895CF93DF93EC01CE0146
S11318700E94FA0B8111FBCFDF91CF91089500975D
S1131880A1F0E2E5F1E013821282108221E02183CB
S1131890E6E5F1E02081226020830E94191182E5AF
S11318A091E00E94A41080E0089581E0089582E50B
S11318B091E00E94EF10089582E591E00E940111E9
S11318C00895BC0182E591E00E9410110895809171
S11318D0390190913A01A0913B01B0913C010196EC
S11318E0A11DB11D8093390190933A01A0933B014E
S11318F0B0933C010895CF93DF9300D0CDB7DEB70A
S11319001A82198205C089819A8101969A838983F2
S113191089819A810A97B8F30F900F90DF91CF9144
S1131920089541E063E081E00E94BB0D0E947B0CBE
S113193040E063E081E00E94BB0D0895CF93DF9304
S113194000D0CDB7DEB781E0898380913801811161
S11319501AC081E0809338011092390110923A0143
S113196010923B0110923C010E94570C82E08A8342
S11319706EE97CE0CE0101960E949A05CE010196A3
S11319800E94B1055CC080913801813009F057C0D4
S11319900E945C0C87E391E00E94610C8091390104
S11319A090913A01A0913B01B0913C019093630165
S11319B0809362016091620170916301CB01A0E0A8
S11319C0B0E0BA2FA92F982F882720913701BC01A6
S11319D0CD01620F711D811D911D60935E01709395
S11319E05F0180936001909361010E94841224EA54
S11319F03BE74CE85AE30E947913609333017093F8
S1131A003401809335019093360110926301109252
S1131A1062011092390110923A0110923B01109226
S1131A203C011092380183E08A836EE97CE0CE01A8
S1131A3001960E949A05CE0101960E94B1050F906D
S1131A400F90DF91CF910895CF93DF9300D0CDB75E
S1131A50DEB781E0898383E08A8341E063E081E04B
S1131A600E94810D40E063E083E00E94810D40E02C
S1131A7063E081E00E94BB0D6EE97CE0CE0101963B
S1131A800E949A0587E69CE00E943F0C0F900F90FD
S1131A90DF91CF910895CF93DF9300D0CDB7DEB718
S1131AA081E0898383E08A83CE0101960E94B10597
S1131AB00F900F90DF91CF910895CF93DF9300D0D3
S1131AC0CDB7DEB781E0898383E08A830E945C0C12
S1131AD0CE0101960E94BB050F900F90DF91CF912C
S1131AE008950E94910C60913301709134018091AA
S1131AF035019091360108950E946E010E94C9013A
S1131B00FDCF6830A0F581110BC08AB350E002C04C
S1131B10440F551F6A95E2F7482B4ABB80E00895AD
S1131B20813059F487B350E002C0440F551F6A95C1
S1131B30E2F7482B47BB80E00895823059F484B320
S1131B4050E002C0440F551F6A95E2F7482B44BB8E
S1131B5080E00895833069F481B350E002C0440FFB
S1131B60551F6A95E2F7482B41BB80E0089581E058
S1131B70089582E00895683008F074C081111BC094
S1131B80413061F42BB381E090E002C0880F991FCB
S1131B906A95E2F7822B8BBB80E008952BB381E03A
S1131BA090E002C0880F991F6A95E2F7809582231E
S1131BB08BBB80E008958130D9F4413061F428B3BF
S1131BC081E090E002C0880F991F6A95E2F7822BAA
S1131BD088BB80E0089528B381E090E002C0880FBC
S1131BE0991F6A95E2F78095822388BB80E0089567
S1131BF08230D9F4413061F425B381E090E002C031
S1131C00880F991F6A95E2F7822B85BB80E00895BF
S1131C1025B381E090E002C0880F991F6A95E2F72E
S1131C208095822385BB80E008958330E9F44130B8
S1131C3061F422B381E090E002C0880F991F6A9595
S1131C40E2F7822B82BB80E0089522B381E090E02A
S1131C5002C0880F991F6A95E2F78095822382BBA0
S1131C6080E0089581E0089582E00895683008F0E6
S1131C7064C0811117C079B381E090E09C01062E05
S1131C8002C0220F331F0A94E2F7872F90E08223C9
S1131C90932302C0959587956A95E2F7FA018083AC
S1131CA080E008958130B9F476B381E090E09C013E
S1131CB0062E02C0220F331F0A94E2F7872F90E00A
S1131CC08223932302C0959587956A95E2F7FA01DA
S1131CD0808380E008958230B9F473B381E090E0AA
S1131CE09C01062E02C0220F331F0A94E2F7872FAD
S1131CF090E08223932302C0959587956A95E2F735
S1131D00FA01808380E008958330C9F470B381E0E0
S1131D1090E09C01062E02C0220F331F0A94E2F7C2
S1131D20872F90E08223932302C0959587956A9527
S1131D30E2F7FA01808380E0089581E0089582E06B
S1131D400895882319F0813049F014C085B78C7F39
S1131D50682B65BF8FB780688FBF0CC085B770E0F4
S1131D60660F771F660F771F837F682B65BF8FB75A
S1131D7080688FBF80E00895882319F0813029F0AE
S1131D8007C08BB780648BBF03C08BB780688BBFE1
S1131D9080E00895882319F0813029F007C08BB7BB
S1131DA08F7B8BBF03C08BB78F778BBF80E0089589
S1131DB0882319F0813049F00FC08BB78F7B8BBF1C
S1131DC07093400160933F0107C08BB78F778BBF3F
S1131DD070933E0160933D0180E008951F920F923D
S1131DE00FB60F9211242F933F934F935F936F93EA
S1131DF07F938F939F93AF93BF93EF93FF93E09160
S1131E003F01F09140010995FF91EF91BF91AF918E
S1131E109F918F917F916F915F914F913F912F91FE
S1131E200F900FBE0F901F9018951F920F920FB630
S1131E300F9211242F933F934F935F936F937F934C
S1131E408F939F93AF93BF93EF93FF93E0913D01E3
S1131E50F0913E010995FF91EF91BF91AF919F9150
S1131E608F917F916F915F914F913F912F910F903F
S1131E700FBE0F901F901895FC01892B99F112BE8B
S1131E8083B79081292F217030E00024369527955F
S1131E900794369527950794322F202D282B23BF9E
S1131EA083B790819695292F30E0220F331F220F9C
S1131EB0331F220F331F282B23BF8081811114C0AD
S1131EC099B78481482F417050E0440F551F86957F
S1131ED08170482B492B49BF8481837039F07894F1
S1131EE080E0089581E0089580E0089580E00895F9
S1131EF0009761F0FC01208121110AC0228122BFD8
S1131F0023B78181822B83BF80E0089581E0089507
S1131F1080E00895009741F0FC012081211106C062
S1131F20828182BF80E0089581E0089580E0089571
S1131F30009731F090934C0180934B0180E0089519
S1131F4081E008951F920F920FB60F9211242F93E0
S1131F503F934F935F936F937F938F939F93AF932D
S1131F60BF93EF93FF93E0914B01F0914C010995DE
S1131F70FF91EF91BF91AF919F918F917F916F915D
S1131F805F914F913F912F910F900FBE0F901F9033
S1131F9018951F920F920FB60F9211242F933F930F
S1131FA04F935F936F937F938F939F93AF93BF935D
S1131FB0EF93FF93E0914901F0914A010995FF9154
S1131FC0EF91BF91AF919F918F917F916F915F91AD
S1131FD04F913F912F910F900FBE0F901F90189526
S1131FE0FC01892B79F11DBC1CBC9FB580818170DB
S1131FF0892B8FBD8FB590819695292F30E0220FC4
S1132000331F282B2FBD808181111EC089B7948175
S1132010692F617070E062957295707F7627607F9A
S1132020762791FB442740F950E0440F551F440F95
S1132030551F462B482B49BF8481837039F078940F
S113204080E0089581E0089580E0089580E0089597
S1132050009771F0FC01208121110CC02281338191
S11320603DBD2CBD2EB58181822B8EBD80E00895AF
S113207081E0089580E00895009751F0FC012081EB
S1132080211108C0828193819DBD8CBD80E008959B
S113209081E0089580E00895009731F0909348011D
S11320A08093470180E0089581E008951F920F9284
S11320B00FB60F9211242F933F934F935F936F9317
S11320C07F938F939F93AF93BF93EF93FF93E0918D
S11320D04701F09148010995FF91EF91BF91AF91AC
S11320E09F918F917F916F915F914F913F912F912C
S11320F00F900FBE0F901F9018951F920F920FB65E
S11321000F9211242F933F934F935F936F937F9379
S11321108F939F93AF93BF93EF93FF93E091450108
S1132120F09146010995FF91EF91BF91AF919F9175
S11321308F917F916F915F914F913F912F910F906C
S11321400FBE0F901F901895FC01892B09F441C014
S113215014BC85B59081292F217030E00024369578
S113216027950794369527950794322F202D282BF1
S113217025BD85B590819695292F30E0220F331F18
S1132180220F331F220F331F282B25BD808181117D
S113219022C089B79481692F617070E07695762F9B
S11321A066277795679591FB442740F950E0002412
S11321B0569547950794569547950794542F402D67
S11321C0462B482B49BF8481837039F0789480E092
S11321D0089581E0089580E0089580E008950097CF
S11321E061F0FC01208121110AC0228124BD25B5A2
S11321F08181822B85BD80E0089581E0089580E08F
S11322000895009749F0FC018081811107C085B5CC
S1132210887F85BD80E0089581E0089580E0089579
S1132220892B29F084B5FB01808380E0089581E047
S11322300895009731F0909344018093430180E026
S1132240089581E008951F920F920FB60F92112402
S11322502F933F934F935F936F937F938F939F93AA
S1132260AF93BF93EF93FF93E0914301F091440147
S11322700995FF91EF91BF91AF919F918F917F91BC
S11322806F915F914F913F912F910F900FBE0F90DF
S11322901F9018951F920F920FB60F9211242F932F
S11322A03F934F935F936F937F938F939F93AF93DA
S11322B0BF93EF93FF93E0914101F091420109959F
S11322C0FF91EF91BF91AF919F918F917F916F910A
S11322D05F914F913F912F910F900FBE0F901F90E0
S11322E018955058BB27AA270E9489110C943A13B9
S11322F00E942C1338F00E94331320F039F49F3FCE
S113230019F426F40C9429130EF4E095E7FB0C94CD
S11323102313E92F0E944B1358F3BA17620773076C
S11323208407950720F079F4A6F50C946D130EF448
S1132330E0950B2EBA2FA02D0B01B90190010C01D1
S1132340CA01A0011124FF27591B99F0593F50F4E9
S1132350503E68F11A16F040A22F232F342F442741
S1132360585FF3CF469537952795A795F040539539
S1132370C9F77EF41F16BA0B620B730B840BBAF009
S11323809150A1F0FF0FBB1F661F771F881FC2F774
S11323900EC0BA0F621F731F841F48F48795779588
S11323A06795B795F7959E3F08F0B0CF9395880F42
S11323B008F09927EE0F9795879508950E94FF12CC
S11323C008F481E008950E94F7110C943A130E94D6
S11323D0331358F00E942C1340F029F45F3F29F086
S11323E00C94231351110C946E130C9429130E9412
S11323F04B1368F39923B1F3552391F3951B550BB4
S1132400BB27AA2762177307840738F09F5F5F4FC3
S1132410220F331F441FAA1FA9F335D00E2E3AF002
S1132420E0E832D091505040E695001CCAF72BD01A
S1132430FE2F29D0660F771F881FBB1F261737076B
S11324404807AB07B0E809F0BB0B802DBF01FF279D
S113245093585F4F3AF09E3F510578F00C94231344
S11324600C946E135F3FE4F3983ED4F3869577950E
S11324706795B795F7959F5FC9F7880F911D969556
S1132480879597F90895E1E0660F771F881FBB1FB2
S1132490621773078407BA0720F0621B730B840B5F
S11324A0BA0BEE1F88F7E09508950E94531388F045
S11324B09F5798F0B92F9927B751B0F0E1F0660F04
S11324C0771F881F991F1AF0BA95C9F714C0B13045
S11324D091F00E946D13B1E008950C946D13672F71
S11324E0782F8827B85F39F0B93FCCF38695779574
S11324F06795B395D9F73EF490958095709561955D
S11325007F4F8F4F9F4F0895E89409C097FB3EF487
S113251090958095709561957F4F8F4F9F4F99232C
S1132520A9F0F92F96E9BB279395F69587957795AA
S11325306795B795F111F8CFFAF4BB0F11F460FF6A
S11325401BC06F5F7F4F8F4F9F4F16C0882311F0C2
S113255096E911C0772321F09EE8872F762F05C0D6
S1132560662371F096E8862F70E060E02AF09A9571
S1132570660F771F881FDAF7880F9695879597F966
S11325800895E894F92F96EBFF2381F012161306B1
S11325901406440B9395F69587957795679557950B
S11325A04040FF23B9F71BC099270895882351F4AD
S11325B09850D2F7872B762F652F542F432F322F25
S11325C020E0B1F3121613061406440B88233AF0E4
S11325D09A95440F551F661F771F881FCAF7552306
S11325E04AF4440F551F11F460FF04C06F5F7F4F1E
S11325F08F4F9F4F880F9695879597F90895990F58
S11326000008550FAA0BE0E8FEEF16161706E807B8
S1132610F907C0F012161306E407F50798F0621BD9
S1132620730B840B950B39F40A2661F0232B242BAE
S1132630252B21F408950A2609F4A140A6958FEFCD
S1132640811D811D089597F99F6780E870E060E01F
S113265008959FEF80EC089500240A941616170637
S113266018060906089500240A941216130614067F
S113267005060895092E0394000C11F4882352F0E2
S1132680BB0F40F4BF2B11F460FF04C06F5F7F4F9A
S11326908F4F9F4F089557FD9058440F551F59F081
S11326A05F3F71F04795880F97FB991F61F09F3F3B
S11326B079F087950895121613061406551FF2CF64
S11326C04695F1DF08C0161617061806991FF1CFB4
S11326D086957105610508940895E894BB276627DB
S11326E07727CB0197F908950E94FF1208F48FEF22
S11326F008950E948C130C943A130E942C1338F002
S11327000E94331320F0952311F00C9423130C949E
S1132710291311240C946E130E944B1370F3959F8C
S1132720C1F3950F50E0551F629FF001729FBB27C4
S1132730F00DB11D639FAA27F00DB11DAA1F649F60
S11327406627B00DA11D661F829F2227B00DA11D13
S1132750621F739FB00DA11D621F839FA00D611D99
S1132760221F749F3327A00D611D231F849F600DBA
S1132770211D822F762F6A2F11249F5750409AF0E3
S1132780F1F088234AF0EE0FFF1FBB1F661F771F6F
S1132790881F91505040A9F79E3F510580F00C943A
S11327A023130C946E135F3FE4F3983ED4F38695A1
S11327B077956795B795F795E7959F5FC1F7FE2BDA
S11327C0880F911D9695879597F90895F894FFCFF2
S11327D001015269676874004C65667420004D6F8E
S11327E0746F722073746172747320696E00322086
S11327F05365632E00536574204465662E20526F22
S1132800742E0053706565643A33302520004469A2
S1132810723A4600446973743A200020636D2000C4
S113282053706565643A35302520004469723A5224
S1132830004469723A4200486F6C64206D6F76659B
S1132840203353004D6F746F722053746F70706532
S105285064001E
S9030000FC
